:0A1075000001020203030404050554
:10074600E4F513F512F511F510F51BF51AF519F583
:1007560018C203C200C202C201120A5543B2020005
:1007660000000000438002000000000043B40100C6
:1007760000000000000000000053B4FD000000006F
:10078600007E017F008E238F24752B01752C127538
:10079600210175221C752901752A3C752D01752EBE
:1007A6005C90E680E030E70E8521258522268529A6
:1007B60027852A28800C852925852A2685212785AF
:1007C6002228EE54E070030208E6751400751580C1
:1007D6007E017F008E168F17C374EC9FFF74019EF7
:1007E600CF2402CF3400FEE48F0F8E0EF50DF50CEC
:1007F600F50BF50AF509F508AF0FAE0EAD0DAC0C0D
:10080600AB0BAA0AA909A808C3120C93502AE5152E
:10081600250BF582E514350AF58374CDF0E4FAF973
:10082600F8E50B2401F50BEA350AF50AE93509F571
:1008360009E83508F50880C0E4F50BF50AF509F571
:1008460008AF0FAE0EAD0DAC0CAB0BAA0AA909A8EA
:1008560008C3120C935037E517250BF582E51635BC
:100866000AF583E0FFE515250BF582E514350AF553
:1008760083EFF0E4FAF9F8E50B2401F50BEA350A03
:10088600F50AE93509F509E83508F50880B3851450
:100896002385152474002480FF740134FFFEC3E50C
:1008A6002C9FF52CE52B9EF52BC3E5269FF526E51B
:1008B600259EF525C3E5289FF528E5279EF527C340
:1008C600E5229FF522E5219EF521C3E52A9FF52A1B
:1008D600E5299EF529C3E52E9FF52EE52D9EF52DDE
:1008E600D2E843D82090E668E04409F090E65CE060
:1008F600443DF0D2AF90E680E020E105D205120E2D
:10090600F390E680E054F7F0538EF8C20330010509
:10091600120300C2013003291210935024C203129D
:100926000F7920001690E682E030E704E020E1EF40
:1009360090E682E030E604E020E0E4120F22121096
:0609460095120F9E80C710
:01094C002288
:1003000090E6B9E0120CA403DB00048401051A0393
:1003100003350603D50803CF0903C30A03C90B0538
:1003200092B005CBB105FBB20643B30690B406E12B
:10033000B500000732121097400302073E90E6BB5B
:10034000E024FE602C14604724FD60161460312404
:10035000067066E52390E6B3F0E52490E6B4F0027B
:10036000073EE52B90E6B3F0E52C90E6B4F00207EB
:100370003EE52590E6B3F0E52690E6B4F002073EB0
:10038000E52790E6B3F0E52890E6B4F002073E904A
:10039000E6BAE0FF120F4EAA06A9077B01EA494B15
:1003A000600DEE90E6B3F0EF90E6B4F002073E90F9
:1003B000E6A0E04401F002073E90E6A0E04401F030
:1003C00002073E12106302073E12107F02073E1220
:1003D0000CCA02073E12105102073E121099400348
:1003E00002073E90E6B8E0247F602B14603C2402B4
:1003F000600302047AA200E433FF25E0FFA202E4D6
:10040000334F90E740F0E4A3F090E68AF090E68B5B
:100410007402F002073EE490E740F0A3F090E68A11
:10042000F090E68B7402F002073E90E6BCE0547E4A
:10043000FF7E00E0D3948040067C007D0180047C38
:10044000007D00EC4EFEED4F2475F58274103EF5F4
:1004500083E493FF3395E0FEEF24A1FFEE34E68FB3
:1004600082F583E0540190E740F0E4A3F090E68A3F
:10047000F090E68B7402F002073E90E6A0E04401A3
:10048000F002073E12109B400302073E90E6B8E0E0
:1004900024FE601D2402600302073E90E6BAE0B429
:1004A0000105C20002073E90E6A0E04401F0020709
:1004B0003E90E6BAE0705990E6BCE0547EFF7E00C4
:1004C000E0D3948040067C007D0180047C007D00A8
:1004D000EC4EFEED4F2475F58274103EF583E493E7
:1004E000FF3395E0FEEF24A1FFEE34E68F82F58323
:1004F000E054FEF090E6BCE05480FF131313541F49
:10050000FFE0540F2F90E683F0E04420F002073E16
:1005100090E6A0E04401F002073E12109D40030265
:10052000073E90E6B8E024FE60282402600302073C
:100530003E90E6BAE0B40105D20002073E90E6BA6A
:10054000E06402700302073E90E6A0E04401F0027E
:10055000073E90E6BCE0547EFF7E00E0D3948040EE
:10056000067C007D0180047C007D00EC4EFEED4F9A
:100570002475F58274103EF583E493FF3395E0FE15
:10058000EF24A1FFEE34E68F82F583E04401F00210
:10059000073EE4901A07F0A3F07A1A7B077D027FEA
:1005A00051120FDB7A1A7B057D017F51120FBF902C
:1005B0001A05E090E740F0E490E68AF090E68B04BC
:1005C000F090E6A0E04480F002073EE4901A07F0C5
:1005D000A3F0A374A5F07A1A7B077D037F51120F55
:1005E000DB90E74074AAF0E490E68AF090E68B0492
:1005F000F090E6A0E04480F002073E901A0574A552
:10060000F0A3745AF0E4A3F07A1A7B077D017F5DB2
:10061000120FDB7A1A7B057D027F5D120FBF901AE5
:1006200005E090E740F0901A06E090E741F0E49092
:10063000E68AF090E68B7402F090E6A0E04480F049
:1006400002073E901A0574A5F0A3745AF090E6BA1A
:10065000E0901A07F07A1A7B077D017F5D120FDBAD
:100660007A1A7B057D027F5D120FBF901A05E0901C
:10067000E740F0901A06E090E741F0E490E68AF057
:1006800090E68B7402F090E6A0E04480F002073E12
:10069000901A0574A5F0A3745AF090E6BAE0901A87
:1006A00007F090E6BDE0901A08F090E6BCE0901AE2
:1006B00009F07A1A7B077D037F5D120FDB901A0524
:1006C000E090E740F0901A06E090E741F0E490E611
:1006D0008AF090E68B7402F090E6A0E04480F0800F
:1006E0005D901A0574A5F0A3745AF090E6BAE090F4
:1006F0001A07F090E6BDE0901A08F090E6BCE09092
:100700001A09F07A1A7B077D037F54120FDB90E6FB
:10071000BDE090E740F090E6BCE090E741F0E49067
:10072000E68AF090E68B7402F090E6A0E04480F058
:10073000800C12109F500790E6A0E04401F090E674
:05074000A0E04480F080
:010745002291
:0300330002108F29
:04108F0053D8EF3211
:100100001201000200000040B404041000000102CB
:1001100000010A0600020000004001000902200060
:10012000010100A0320904000002FF0000000705E1
:1001300002020002000705860200020009022000F8
:10014000010100A0320904000002FF0000000705C1
:10015000040240000007058802400000040309046F
:100160001003430079007000720065007300730093
:100170007C0345005A002D0055005300420020002A
:100180004600580032002000470050004900460059
:10019000200074006F0020004500780074002000EB
:1001A0004600490046004F002000450078006100ED
:1001B0006D0070006C006500200075007300690020
:1001C0006E0067002000530069006E0067006C003D
:1001D000650020005400720061006E007300610031
:0E01E0006300740069006F006E007300000081
:10103D00421A030000411A0200C104411A00004186
:03104D001A010085
:100A550090E6007410F090E6027460F000000090DB
:100A6500E603F000000090E670E04480F00000002E
:100A750090E6017403F000000090E600E04402F007
:100A850090E61274A0F000000090E61474E0F00007
:100A9500000090E6137402F000000090E615F000E7
:100AA500000000000090E6047480F000000074026D
:100AB500F00000007404F00000007406F00000006F
:100AC5007408F0000000E4F000000090E618F00063
:100AD50000007411F000000090E61A740DF000009B
:050AE500001210872241
:100F9E00E5A020E102D204300416E5A030E1119064
:100FAE00E6017403F000000043A001000000C2043B
:010FBE002210
:02109300D32266
:02109500D32264
:02109700D32262
:100CCA0090E680E030E71E90E6247402F00000000F
:100CDA0090E626F0000000E490E625F0000000907F
:100CEA00E627F0801CE490E624F000000090E62657
:100CFA00F000000090E6257440F000000090E6271E
:090D0A00F090E6BAE0F51FD322D7
:1010510090E740E51FF0E490E68AF090E68B04F01B
:02106100D32298
:08107F0090E6BAE0F51ED32251
:1010630090E740E51EF0E490E68AF090E68B04F00A
:02107300D32286
:02109900D32260
:02109B00D3225E
:02109D00D3225C
:02109F00D3225A
:100FF700C0E0C083C082D2015391EF90E65D7401D7
:08100700F0D082D083D0E0326A
:100AEA00C0E0C083C0825391EF90E65D7404F0D0F9
:060AFA0082D083D0E0323F
:10102700C0E0C083C0825391EF90E65D7402F0D0B8
:0610370082D083D0E032FC
:100E1F00C0E0C083C08290E680E030E70E852125D8
:100E2F00852226852927852A28800C852925852A2C
:100E3F00268521278522285391EF90E65D7410F0C7
:070E4F00D082D083D0E03215
:10100F00C0E0C083C082D2035391EF90E65D7408B5
:08101F00F0D082D083D0E03252
:100E5600C0E0C083C08290E680E030E70E852125A1
:100E6600852226852927852A28800C852925852AF5
:100E7600268521278522285391EF90E65D7420F080
:070E8600D082D083D0E032DE
:0110A100321C
:0110A200321B
:0110A300321A
:0110A4003219
:0110A5003218
:0110A6003217
:0110A7003216
:0110A8003215
:0110A9003214
:0110AA003213
:0110AB003212
:0110AC003211
:0110AD003210
:0110AE00320F
:0110AF00320E
:0110B000320D
:0110B100320C
:0110B200320B
:0110B300320A
:0110B4003209
:0110B5003208
:0110B6003207
:0110B7003206
:0110B8003205
:0110B9003204
:0110BA003203
:0110BB003202
:0110BC003201
:0110BD003200
:0110BE0032FF
:0110BF0032FE
:0110C00032FD
:0110C10032FC
:0110C20032FB
:0110C30032FA
:0110C40032F9
:100D1300AD07ED30E00D908100E0901A00F0A3E004
:100D230054FEF0ED30E10D909100E0901A00F0A335
:100D3300E054FDF0ED30E20D90A100E0901A00F0D8
:100D4300A3E054FBF0ED30E30D90B100E0901A0006
:070D5300F0A3E054F7F022C9
:100D5A00AD07ED30E00D908000E0901A00F0A3E0BE
:100D6A004401F0ED30E10D909000E0901A00F0A3FC
:100D7A00E04402F0ED30E20D90A000E0901A00F09D
:100D8A00A3E04404F0ED30E30D90B000E0901A00C7
:070D9A00F0A3E04408F02281
:100F220090E682E030E004E020E60B90E682E030DA
:100F3200E119E030E71590E680E04401F07F147E8D
:0C0F420000120DA190E680E054FEF022A9
:100EF30030050990E680E0440AF0800790E680E040
:100F03004408F07FDC7E05120DA190E65D74FFF0CE
:0F0F130090E65FF05391EF90E680E054F7F02204
:08108700E4F534D2E9D2AF22F6
:100DE700AD0790E678E020E6F9C2E990E678E044BE
:100DF70080F0ED25E090E679F090E678E030E0F9D4
:100E070090E678E04440F090E678E020E6F990E656
:080E170078E030E1D6D2E922B7
:100EC100AC0790E678E020E6F9E534702390E67807
:100ED100E04480F0EC25E090E679F08D2FAF03A996
:100EE100077530018A318932E4F533753401D32233
:020EF100C3221A
:100E8D00AC0790E678E020E6F9E534702590E67839
:100E9D00E04480F0EC25E0440190E679F08D2FAF31
:100EAD0003A9077530018A318932E4F533753403AE
:040EBD00D322C32257
:03004B0002094D5A
:10094D00C0E0C083C082C085C084C086758600C0EB
:10095D00D075D000C000C001C002C003C006C007E2
:10096D0090E678E030E206753406020A3790E678B4
:10097D00E020E10CE53464026006753407020A37A5
:10098D00E53424FE605F14603624FE7003020A28ED
:10099D0024FC7003020A3424086003020A37AB30CA
:1009AD00AA31A932AF3305338F82758300120C44FF
:1009BD0090E679F0E533652F7070753405806B9096
:1009CD00E679E0AB30AA31A932AE338E8275830061
:1009DD00120C71753402E52F6401704E90E678E0CB
:1009ED004420F08045E52F24FEB5330790E678E0EE
:1009FD004420F0E52F14B5330A90E678E04440F03A
:100A0D0075340090E679E0AB30AA31A932AE338E61
:100A1D0082758300120C710533800F90E678E044E7
:100A2D0040F075340080037534005391DFD007D04A
:100A3D0006D003D002D001D000D0D0D086D084D043
:080A4D0085D082D083D0E03295
:020F4E00A907F1
:100F5000AE2DAF2E8F828E83A3E064037017AD0198
:100F600019ED7001228F828E83E07C002FFDEC3E14
:080F7000FEAF0580DFE4FEFF87
:010F78002256
:100FBF00120E8DE53424FA600E146006240770F3C8
:0C0FCF00D322E4F534D322E4F534D3221D
:100FDB00120EC1E53424FA600E146006240770F378
:0C0FEB00D322E4F534D322E4F534D32201
:100F790090E682E044C0F090E681F04387010000EA
:040F89000000002242
:100DA1008E1C8F1D90E600E054187012E51D240181
:100DB100FFE4351CC313F51CEF13F51D801590E6F8
:100DC10000E05418FFBF100BE51D25E0F51DE51CE3
:100DD10033F51CE51D151DAE1C7002151C4E60057A
:060DE100120F8D80EE22CE
:100F8D007400F58690FDA57C05A3E582458370F977
:010F9D002231
:03004300020B00AD
:03005300020B009D
:100B0000020FF70002102700020AEA0002100F008D
:100B1000020E1F00020E56000210A1000210A200D9
:100B20000210A3000210A4000210A5000210A600EB
:100B30000210A7000210A8000210A9000210AA00CB
:100B40000210AB000210A2000210AC000210AD00B7
:100B50000210AE000210AF000210B0000210B1008F
:100B60000210B2000210A2000210A2000210A200A5
:100B70000210B3000210B4000210B5000210B6005B
:100B80000210B7000210B8000210B9000210BA003B
:100B90000210BB000210BC000210BD000210BE001B
:100BA0000210BF000210C0000210C1000210C200FB
:080BB0000210C3000210C40092
:03000000020BB838
:0C0BB800787FE4F6D8FD758134020BFF55
:100C4400BB010CE58229F582E5833AF583E0225065
:100C540006E92582F8E622BBFE06E92582F8E222AF
:0D0C6400E58229F582E5833AF583E49322C9
:100C7100F8BB010DE58229F582E5833AF583E8F0B9
:100C8100225006E92582C8F622BBFE05E92582C865
:020C9100F2224D
:100C9300EB9FF5F0EA9E42F0E99D42F0E89C45F0B7
:010CA300222E
:100CA400D083D082F8E4937012740193700DA3A3DF
:100CB40093F8740193F5828883E4737402936860F3
:060CC400EFA3A3A380DFF3
:100BC400020746E493A3F8E493A34003F68001F2FA
:100BD40008DFF48029E493A3F85407240CC8C33332
:100BE400C4540F4420C8834004F456800146F6DF01
:100BF400E4800B010204081020408090103DE47E44
:100C0400019360BCA3FF543F30E509541FFEE493F5
:100C1400A360010ECF54C025E060A840B8E493A3BC
:100C2400FAE493A3F8E493A3C8C582C8CAC583CAE7
:100C3400F0A3C8C582C8CAC583CADFE9DEE780BE9F
:01105000009F
:00000001FF
